:100000000C9436000C945E000C945E000C945E0020
:100010000C945E000C945E000C945E000C945E00E8
:100020000C945E000C945E000C945E000C945E00D8
:100030000C945E000C945E000C945E000C945E00C8
:100040000C94630E0C945E000C94B1110C94F4119A
:100050000C945E000C945E000C945E000C945E00A8
:100060000C945E000C945E00A00DB71211241FBE0C
:10007000CFEFD8E0DEBFCDBF13E0A0E0B1E0E0EA13
:10008000F7E202C005900D92A035B107D9F727E03D
:10009000A0E5B3E001C01D92A731B207E1F710E07F
:1000A000C6E3D0E004C02197FE010E94B913C43317
:1000B000D107C9F70E940A110C9448130C94000050
:1000C000DC01FB0112968C911297808313968C9120
:1000D0001397818314968C911497828315968C9133
:1000E0001597838316968C911697848317968C9117
:1000F0001797858318968C911897868319968C91FB
:10010000878388E090E00895FC01DB014C9150E08A
:1001100060E070E0428353836483758311968C9111
:100120001197582B428353836483758312968C9165
:100130001297682B428353836483758313968C9143
:100140001397782B428353836483758314964C9161
:10015000149750E060E070E04683578360877187B2
:1001600015968C911597582B468357836087718716
:1001700016968C911697682B4683578360877187F4
:1001800017968C91782B468357836087718788E018
:1001900090E0089586E091E0089584E191E008956B
:1001A00085E391E008958EE491E008958FE691E073
:1001B000089582E891E0089586EC92E0089583EA3C
:1001C00091E0089584EC91E0089581EE91E0089526
:1001D0008F929F92AF92BF92CF92DF92EF92FF9257
:1001E0000F931F93CF93DF93EC018B018A81FB0167
:1001F00080838B8181838C8182838D818383C12CD9
:10020000D12C812C912C540184E0E82EF12C4A81D0
:100210005B816C817D81D801AE0DBF1D8416950672
:10022000A606B706C0F48A899B898C0D9D1DFC012A
:1002300020813181F90120813181BD01F9010995C8
:10024000E80EF91EFFEF8F1A9F0AAF0ABF0A8CE073
:10025000C80ED11CDCCF8C898C938D8911968C9320
:1002600011978E8912968C9312978F8913968C937F
:10027000C7010496DF91CF911F910F91FF90EF90EE
:10028000DF90CF90BF90AF909F908F90089582E0C5
:1002900092E008958CE192E00895CF92DF92EF9280
:1002A000FF920F931F93CF93DF93EC018B01029684
:1002B0000E94E800F801E80FF91F2A8D20832B8D9A
:1002C00021832C8D22832D8D2383049620E030E022
:1002D00040E050E0BA01CA8CDB8CEC8CFD8C4C15F4
:1002E0005D056E057F05B8F4EAA1FBA1E20FF31FDF
:1002F000E080F180B281A381F801E80FF91FE0826C
:10030000F182B283A38304964F5F5F4F6F4F7F4F9D
:100310002C5F3F4FE0CFDF91CF911F910F91FF9066
:10032000EF90DF90CF9008958DE392E0089588E5F7
:1003300092E00895FC01EA54FD4F80810895AF9248
:10034000BF92CF92DF92EF92FF920F931F93CF93C2
:10035000DF9300D000D01F92CDB7DEB78C016B01C8
:10036000643671053CF0FC01EA54FD4F808188231E
:1003700009F478C0DA01ED91FC910190F081E02D53
:10038000B801695C7E4FCA0109957801B0EDEB1A9E
:10039000BEEFFB0A2FEFF70120832EEF319620836B
:1003A00031968083319690833196292F280F20959E
:1003B00020833196C082D801AA5CBE4FDC9245E012
:1003C00050E020E030E0BC016A5F7F4F64177507A2
:1003D00034F0A1912A0F311D4F5F5F4FF7CF6C01B1
:1003E000F8E0CF0ED11C800F911FFC01E95CFE4F9D
:1003F0002095208329E1C21621E0D206CCF45701D2
:10040000C5018E199F098C159D0584F4D80112969B
:100410008D919C911397F50161915F01DC01ED9144
:10042000FC910190F081E02D0995EACFC6011CC036
:100430008EEF92E09A83898383E08B8389E792E051
:100440009D838C83D801ED91FC910190F081E02D8A
:10045000AE014F5F5F4F67E070E0C80109958FEF15
:100460009FEF02C080E090E00F900F900F900F90F0
:100470000F90DF91CF911F910F91FF90EF90DF9040
:10048000CF90BF90AF900895409154035091550381
:1004900060915603709157038091520390915303DA
:1004A0000E942F121092FD051092FC051092FF057C
:1004B0001092FE0510920306109202061092010699
:1004C0001092000683E090E0A0E0B0E08093560632
:1004D00090935706A0935806B0935906E8E9F5E0C3
:1004E00080E090E021913191232BB1F4FC01EE0FDB
:1004F000FF1FE856FA4F22E336E03183208383580A
:100500009F4F909337068093360680E593E0909353
:10051000390680933806089501968931910511F7BF
:100520000895CF92DF92EF92FF9220E030E06A01CF
:100530007B01022E04C0F694E794D794C7940A94E2
:10054000D2F7FC01C192CF01285F3F4F2032310525
:1005500071F7FF90EF90DF90CF900895EF92FF92A8
:100560000F931F93CF93DF93EC018B01AA81BB8183
:10057000FD0101900020E9F731977F01EA1AFB0A9B
:10058000A70160E070E0C8010E9491026A817B814E
:10059000A701C80104960E944B13F801EE0DFF1D40
:1005A0008C8184838D8185838E8186838F818783EF
:1005B00088858087898581878A8582878B858387DF
:1005C000C7010C96DF91CF911F910F91FF90EF9093
:1005D00008954F925F926F927F92AF92BF92CF92A7
:1005E000DF92EF92FF920F931F93CF93DF93EC0173
:1005F0007B018A81FB0180838B8181838C81828353
:100600008D818383DB01179640E050E0BA01E4E07E
:10061000F0E04A805B806C807D808F010C5F1F4F13
:100620004415550566057705C0F48A859B85E80F56
:10063000F91F3497D080218192818381FD01339706
:10064000D08231962083319690838C93F8014F5F4E
:100650005F4F6F4F7F4F1496DCCFEE0DFF1D8C85E3
:1006600080838D8581838E8582838F85838380E0DF
:1006700090E040E050E0BA014C845D846E847F8459
:10068000F701E00FF11F0C5F1F4F4415550566057C
:100690007705B8F4AC89BD89A80FB91FCC90119625
:1006A000DC90119712963C91129713962C91C08270
:1006B000D182328323834F5F5F4F6F4F7F4F04960A
:1006C000DBCF8E8980838F898183888D8283898D1A
:1006D0008383412C512C32018E899F89A88DB98D3D
:1006E000481659066A067B0680F55201AA0CBB1C07
:1006F000EC8DFD8DEA0DFB1DA081B181FD01019006
:100700000020E9F731976F01CA1ADB0AA60160E001
:1007100070E0C701800F911F0E9491020C5F1F4F74
:100720008C8D9D8DFC01EA0DFB1D60817181A60100
:10073000C701800F911F0E944B130C0D1D1DFFEF71
:100740004F1A5F0A6F0A7F0AC7CFC801DF91CF91A6
:100750001F910F91FF90EF90DF90CF90BF90AF90DF
:100760007F906F905F904F900895EF92FF920F935C
:100770001F93CF93DF938C017B01EC018A81FB01F6
:100780008193AB81BC81ED0109900020E9F72197AD
:10079000CA1BDB0BAE0160E070E0CF010E9491024A
:1007A000F80163817481AE01C70105960E944B1365
:1007B000CE010596DF91CF911F910F91FF90EF90A1
:1007C0000895CF92DF92EF92FF920F931F93CF93F2
:1007D000DF936C01EB01FC01828188838381898333
:1007E000A481B581FD0101900020E9F731978F01C7
:1007F0000A1B1B0BA80160E070E0CE0102960E946C
:100800009102F60164817581A801CE0106960E94CD
:100810004B13C8010696F601A681B781FD01019030
:100820000020E9F731977F01EA1AFB0AA70160E08F
:1008300070E08C0F9D1F0E949102065F1F4FF60112
:1008400066817781A701CE01800F911F0E944B1313
:100850000E0D1F1DF601A085B185FD010190002040
:10086000E9F731977F01EA1AFB0AA70160E070E01F
:10087000CE01800F911F0E9491020C5F1F4FF60165
:1008800060857185A701CE01800F911F0E944B13D7
:10089000C8018E0D9F1DF60162854385348525852F
:1008A000C80FD91F688349833A832B830496DF914D
:1008B000CF911F910F91FF90EF90DF90CF9008950F
:1008C000CF92DF92EF92FF92FC011082118212828E
:1008D0001382DB0120E030E04D9150E0022E02C097
:1008E000440F551F0A94E2F7052E000C660B770B98
:1008F000C080D180E280F3804C295D296E297F2958
:100900004083518362837383285F3F4F20323105D8
:1009100019F7FF90EF90DF90CF9008958F929F92FC
:10092000AF92BF92CF92DF92EF92FF920F931F93FD
:10093000CF93DF9300D000D0CDB7DEB77C018B0121
:10094000FB018191BF01F7018283CE0101960E94D4
:10095000600489819A81AB81BC814C015D01F5E025
:100960008F0E911CA11CB11C680125E0C20ED11C88
:10097000A601401B510B60E070E0481559056A055F
:100980007B0548F4F60141916F019F012250310926
:10099000F9014083EDCFF801E80FF91F14820C5FD5
:1009A0001F4FF7011483038305960F900F900F904C
:1009B0000F90DF91CF911F910F91FF90EF90DF90FB
:1009C000CF90BF90AF909F908F9008954F925F927D
:1009D0006F927F928F929F92AF92BF92CF92DF924F
:1009E000EF92FF920F931F93CF93DF93CDB7DEB7B4
:1009F0002C970FB6F894DEBF0FBECDBF7C018B01E4
:100A0000DB018C9190E0F7019383828311962C9106
:100A1000922B938382836E5F7F4FCE0109960E9453
:100A2000600489849A84AB84BC84B501A4014A5FC4
:100A30005F4F6F4F7F4FF8013696CF01801B910BB0
:100A4000A0E0B0E084179507A607B70728F48191C6
:100A5000DF0112978C93F1CFF801E80DF91D158293
:100A6000C8010596D70115969C938E931497B401EF
:100A70006A5F7F4F600F711FCE0105960E94600470
:100A8000BAE08B0E911C4D815E816F8178852401C7
:100A9000092C000C66087708440E551E661E771E4A
:100AA000F801E80DF91DCF01801B910BA0E0B0E02B
:100AB00084159505A605B70528F48191DF011297E5
:100AC0008C93F1CF6401C40ED51EB8016C0D7D1D51
:100AD000FB0131971082C4010197800F911FF7012C
:100AE00097838683CE0101960E946004A6014C5F25
:100AF0005F4F49805A806B807C804A01052E000C34
:100B0000AA08BB08840C951CA61CB71CF801E40FAE
:100B1000F51F9F01201B310BC901A0E0B0E0881533
:100B20009905AA05BB0528F48191DF0112978C93E2
:100B3000F0CFCA01840D951DF801E80FF91FDF0100
:100B400011971C929A0121503109020F131FD701EE
:100B500019961C930E9318972181428150E060E012
:100B600070E0BA0155274427522B2081422B238164
:100B7000722BF701428753876487758704962C96FA
:100B80000FB6F894DEBF0FBECDBFDF91CF911F919E
:100B90000F91FF90EF90DF90CF90BF90AF909F901C
:100BA0008F907F906F905F904F9008952F923F921B
:100BB0004F925F926F927F928F929F92AF92BF926D
:100BC000CF92DF92EF92FF920F931F93CF93DF9319
:100BD000CDB7DEB728970FB6F894DEBF0FBECDBFF6
:100BE0008C015B01DB018C9111969C9111971296FF
:100BF000CC901297D12CE12CF12C7601DD24CC2461
:100C0000D92AC82A13968C91F82AF80182819381F7
:100C1000A481B5818C159D05AE05BF0570F4B601A4
:100C2000660F771F660F771F828593850E94F40EEB
:100C3000D8011B969C938E931A97F801C282D38297
:100C4000E482F582D5011796C12CD12C7601F4E00F
:100C50008F2E912C98012A5F3F4FF80142815381DA
:100C600064817581C4010496C416D506E606F706AC
:100C700080F54C9150E060E070E0742F66275527B6
:100C80004427FD013397E0814E2BFD013297E0812F
:100C90005E2BFD013197E0816E2BF801468357836F
:100CA000608771874C01089742855385840F951F93
:100CB000F9014081518162817381FC01408351833C
:100CC00062837383FFEFCF1ADF0AEF0AFF0A1496DD
:100CD000C4CFF401EA0DFB1D20813181C280D12CEB
:100CE000E12CF12C7601DD24CC24D32AC22A2381E5
:100CF000F22A4C01F80184859585A685B7858C1567
:100D00009D05AE05BF0570F4B601660F771F660F2F
:100D1000771F848995890E94F40ED80155969C937B
:100D20008E935497F801C486D586E686F78620E030
:100D300030E0C12CD12C7601D8015096F8014485C1
:100D4000558566857785F501E80DF91DC401049682
:100D5000C416D506E606F70648F59180428150E0B4
:100D600060E070E0BA01552744275929908049294D
:100D7000E3817E2BF801408B518B628B738B4C018E
:100D800084899589FC01E20FF31F4D915D916D916E
:100D90007C9113974083518362837383FFEFCF1A53
:100DA000DF0AEF0AFF0A2C5F3F4FC8CF2081318155
:100DB000C280D12CE12CF12C7601DD24CC24D32A65
:100DC000C22A2381F22A4C01F80186899789A08DD5
:100DD000B18D8C159D05AE05BF0560F4B601660F9B
:100DE000771F848D958D0E94F40ED8015D969C939B
:100DF0008E935C97F801C68AD78AE08EF18E412CDB
:100E0000512C32011801FAE12F0E311CF8018689AC
:100E10009789A08DB18D481659066A067B0608F0A1
:100E20005AC0B501680D791DCE0101960E9460047B
:100E300094012C5F3F4FC980DA80EB80FC80C901B0
:100E4000032E000CAA0BBB0BAC01BD014C0D5D1DAC
:100E50006E1D7F1D4D835E836F837887F501E20FE2
:100E6000F31FAF014A195B09CA01A0E0B0E04D8150
:100E70005E816F81788584179507A607B70728F4E8
:100E80004191DF0112974C93ECCFC9018C0D9D1D50
:100E9000F501E80FF91F31971082215031092A0D11
:100EA0003B1DD8015B963C932E935A974C01C2018F
:100EB000880F991F5C96ED91FC915D97E80FF91FE3
:100EC000D1018D919C9191838083BFEF4B1A5B0A76
:100ED0006B0A7B0A9BCFC40128960FB6F894DEBF3D
:100EE0000FBECDBFDF91CF911F910F91FF90EF907B
:100EF000DF90CF90BF90AF909F908F907F906F903A
:100F00005F904F903F902F9008958F929F92AF9255
:100F1000BF92CF92DF92EF92FF920F931F93CF93E6
:100F2000DF9300D000D0CDB7DEB78C017B01CE01BE
:100F300001960E94600489819A81AB81BC814C0139
:100F40005D0124E0820E911CA11CB11C6701E4E04C
:100F5000CE0ED11CA6014E195F0960E070E0481565
:100F600059056A057B0548F4F60141916F019F011F
:100F700022503109F9014083EDCF6701C80ED91E17
:100F8000F6011382F3E0EF0EF11CF801F382E28226
:100F9000F601448150E060E070E0F801448355833D
:100FA00066837783F6012581522BF80144835583AC
:100FB00066837783F6012681622BF801448355838B
:100FC00066837783F6012781722BF801448355836A
:100FD00066837783F601408550E060E070E0F801B9
:100FE0004087518762877387F6012185522BF8016C
:100FF0004087518762877387F6012285622BF8014B
:101000004087518762877387F6012385722BF80129
:1010100040875187628773870C960F900F900F90CF
:101020000F90DF91CF911F910F91FF90EF90DF9084
:10103000CF90BF90AF909F908F9008954F925F9206
:101040006F927F929F92AF92BF92CF92DF92EF9278
:10105000FF920F931F93CF93DF938C01EB01888155
:101060009981CA80D12CE12CF12C7601DD24CC248D
:10107000D92AC82A8B81F82AF80182819381A48118
:10108000B5818C159D05AE05BF0568F48CE08C9D7F
:10109000B0018D9D700D1124828993890E94F40EF8
:1010A000F801938B828BF801C282D382E482F582AD
:1010B000C12CD12C412C512C320184E0E82EF12C92
:1010C0005801F6E0AF0EB11C9CE0992EF801428168
:1010D000538164817581DE01AE0DBF1D4416550636
:1010E00066067706D0F4BD01C5010E948507E80EAB
:1010F000F91EF801A289B389AC0DBD1DF501892D3A
:1011000001900D928A95E1F7FFEF4F1A5F0A6F0A7F
:101110007F0A8CE0C80ED11CD9CF4C9150E060E022
:1011200070E0448B558B668B778B11968C91119761
:10113000582B448B558B668B778B12968C9112971C
:10114000682B448B558B668B778B13968C91782B01
:10115000448B558B668B778BC7010496DF91CF91BB
:101160001F910F91FF90EF90DF90CF90BF90AF90C5
:101170009F907F906F905F904F9008958F929F9275
:10118000AF92BF92CF92DF92EF92FF920F931F9395
:10119000CF93DF938C01EB0102960E941E08FE01A3
:1011A000E80FF91F20813181C280D12CE12CF12C74
:1011B0007601DD24CC24D32AC22A2381F22A5C01C1
:1011C00024E0A20EB11CF801828D938DA48DB58D03
:1011D0008C159D05AE05BF0570F4B601660F771F2F
:1011E000660F771F82A193A10E94F40ED8019396F7
:1011F0009C938E939297F801C28ED38EE48EF58ED7
:1012000020E030E0C12CD12C76014801FEE18F0EA8
:10121000911CF801828D938DA48DB58DC816D906C9
:10122000EA06FB06A0F5AE014A0D5B1DDA01119638
:101230006C91119712968C9190E0A0E0B0E0DC01E7
:1012400099278827962BFA016081862B4381B42B3E
:10125000F801868F978FA0A3B1A3F4E0AF0EB11C65
:10126000F801A2A1B3A1A20FB31FF40140815181E3
:10127000628173814D935D936D937C931397FFEF20
:10128000CF1ADF0AEF0AFF0A2C5F3F4FC2CFC5011A
:10129000DF91CF911F910F91FF90EF90DF90CF9052
:1012A000BF90AF909F908F9008950F931F93CF930F
:1012B000DF93CDB7DEB72A970FB6F894DEBF0FBE27
:1012C000CDBF8C0186EE92E09A8389831B821C82BB
:1012D0001D821E821F82188619861A86D801ED91FA
:1012E000FC910190F081E02DAE014F5F5F4F6AE00D
:1012F00070E0C80109950E94AD0EF8016087718702
:10130000828793872A960FB6F894DEBF0FBECDBFB3
:10131000DF91CF911F910F9108954F925F926F923D
:101320007F92AF92BF92CF92DF92EF92FF920F9394
:101330001F93CF93DF93CDB7DEB72E970FB6F894F8
:10134000DEBF0FBECDBF8C0182EF92E09A8389830E
:101350001C821B8281EB92E09E838D8398878F8312
:101360009A8789871B861C861D861E86680188EBE6
:10137000C81A8DEFD80A7801A6E8EA1AADEFFA0A82
:1013800098E1492E55245394612C712CD601ED918E
:10139000FC913097B9F1848195819C838B83808106
:1013A00091819E838D8382819381DC01ED91FC91FB
:1013B0000480F581E02D099598878F83D601ED9102
:1013C000FC9182819381DC01ED91FC910680F78193
:1013D000E02D09959A8789874B865C866D867E8687
:1013E000F80180819181F601A081B18118966D91FB
:1013F0007C911997DC01ED91FC91AE014F5F5F4F3D
:10140000C8010995B2E0CB0ED11CCE14DF0409F05F
:10141000BDCF6801E4E5CE1AEDEFDE0A88E1482E83
:1014200055245394612C712CF701A081B181109740
:10143000E1F112968D919C9113979C838B83149666
:101440008D919C9115979E838D83ED91FC911197C1
:101450000480F581E02DCD01099598878F83D70110
:101460008D919C91DC01ED91FC910680F781E02D3E
:1014700009959A8789874B865C866D867E86D8011A
:10148000ED91FC91A080B180F70180819181DC0118
:10149000ED91FC910280F381E02D0995AE014F5F43
:1014A0005F4FBC01C801F5010995F2E0EF0EF11C98
:1014B000EC14FD0409F0B8CFF801EA54FD4F81E0C7
:1014C00080832E960FB6F894DEBF0FBECDBFDF919E
:1014D000CF911F910F91FF90EF90DF90CF90BF9031
:1014E000AF907F906F905F904F9008958F929F92F2
:1014F000AF92BF92CF92DF92EF92FF920F931F9322
:10150000CF93DF93CDB7DEB72A970FB6F894DEBF3F
:101510000FBECDBF8C015B0186EE92E09A8389837A
:101520001B821C821D821E821F82188619861A86C3
:101530000E94AD0EF801C084D184E284F3849B0143
:10154000AC012C193D094E095F0969017A01B50109
:10155000CE0101960E94840088EE882E83E0982EAA
:10156000A12CB12CC701B601A50194010E947813EA
:10157000CB80DC80ED80FE80C20ED31EE41EF51E03
:10158000CB82DC82ED82FE829B01AC0160E472E4DE
:101590008FE090E00E945413CF80D884E984FA84CD
:1015A000DC01CB018C0D9D1DAE1DBF1D8F83988767
:1015B000A987BA870E94AD0ECB80DC80ED80FE80CB
:1015C00031E0C31AD108E108F108A50194010E9495
:1015D0007813C21AD30AE40AF50AF801C486D5863C
:1015E000E686F786CF80D884E984FA84F6E3DF1AAA
:1015F000F5E6EF0AF4ECFF0A9B01AC0160E472E44B
:101600008FE090E00E945413C61AD70AE80AF90A3C
:10161000F801C08AD18AE28AF38AB801605F7F4FFD
:10162000C8010C960E94F2120E94AD0EF801E5541A
:10163000FD4F60837183828393832A960FB6F8945B
:10164000DEBF0FBECDBFDF91CF911F910F91FF90F5
:10165000EF90DF90CF90BF90AF909F908F900895C4
:101660002F923F924F925F926F927F928F929F92B2
:10167000AF92BF92CF92DF92EF92FF920F931F93A0
:10168000CF93DF93CDB7DEB760970FB6F894DEBF88
:101690000FBECDBF988B8F870E94AD0E4B015C01B2
:1016A0002F85388925543D4F3E832D83F901808154
:1016B0009181A281B381A5019401281B390B4A0BAA
:1016C0005B0BDA01C901893F9A42A105B10528F0F7
:1016D000EF85F889EA54FD4F10820F85188904556B
:1016E0001D4FD8018D919C91892B81F0EF85F88950
:1016F000E154FD4F80819181A281B38188159905C4
:10170000AA05BB0518F4F801118210826F8478884D
:10171000FCE46F1AFDEF7F0A2F85388920553D4F75
:101720003A832983CF84D88838E1C30ED11C4F85F2
:1017300058894A545D4F58874F832F8538892C53D9
:101740003D4F3A8729874F8558894D535D4F5C87B8
:101750004B87EF84F88852E5E51A5DEFF50A2F858F
:1017600038892E543D4F3C832B834F8558894154F3
:101770005D4F5E874D871401250154E1250E311C14
:10178000411C511CEF85F88984899589A689B78900
:10179000892B8A2B8B2B89F4AF85B88912968D9172
:1017A0009C911397DC01ED91FC910680F781E02D6F
:1017B00009959C0197FF15C037C10E94AD0EDC0151
:1017C000CB0188199909AA09BB09EF85F8892489F1
:1017D000358946895789281739074A075B07E0F694
:1017E0004BC1D3018D919C911197820F931F8D93C3
:1017F0009C93F8014081518147305105D9F4AB8168
:10180000BC818D919C911197AC014F5F5F4F4D93BF
:101810005C93EF85F889E80FF91F208FF70180812D
:101820009181019791838083892B09F0ABCF88E068
:1018300090E02FC04115510521F52F3F310569F486
:1018400081E090E0F80191838083AD85BE852D9283
:101850003D924D925C92139795CF0E94AD0EDC01A4
:10186000CB0188199909AA09BB0989389341A105B7
:10187000B10508F487CFEF85F889EA54FD4F10824F
:10188000FBC041305105B1F42E3F310531F482E007
:1018900090E0D8018D939C9375CFF801118210824E
:1018A000AF81B8858C9181116DCF8F8598890E9409
:1018B000550968CF4230510569F4F701318320831F
:1018C000AB81BC811D921C9283E090E0F801918372
:1018D00080832EC04330510561F4322F2227F70157
:1018E00080819181280F391F3183208384E090E02B
:1018F000D0CF4430510581F460E071E00E94641360
:101900008F3F910531F485E090E0F8019183808369
:1019100039CF1182108236CF4530510569F4E98103
:10192000FA8131832083E6E0F0E0D801ED93FC9367
:10193000D3012D933C9326CF4630510599F4322F95
:101940002227E981FA8180819181280F391F318313
:101950002083E7E0F0E0D801ED93FC93D7018D916F
:101960009C9162CF4830510509F00CCFF8011182EB
:10197000108260E071E00E9464138F3F910509F0CE
:1019800001CFA981BA818D919C910097C9F48F856F
:1019900098890E9455098F8598890E948D09EF8545
:1019A000F889E954FD4F80829182A282B382ED8151
:1019B000FE8180829182A282B3828FEF9FEF61C00D
:1019C0008A30910531F4B6018F8598890E94760A94
:1019D000D9CE8630910551F4B60189859A850E9449
:1019E000D60581E0AB85BC858C93CCCE8B30910540
:1019F00021F4EF81F8851082C5CEFC01E752FF4F3C
:101A0000EE0FFF1F2F853889E20FF31F8081918130
:101A1000009709F4B7CEDC01ED91FC910190F081C3
:101A2000E02DB6010995AECEEF85F889EA54FD4F59
:101A30008081882321F10F85188909541D4FF801F1
:101A400080819181A281B381A5019401281B390B6A
:101A50004A0B5B0BDA01C901853C9940A105B10530
:101A600070F08F8598890E945509D8018D929D92BA
:101A7000AD92BC92139703C08EEF9FEF02C080E03F
:101A800090E060960FB6F894DEBF0FBECDBFDF9139
:101A9000CF911F910F91FF90EF90DF90CF90BF906B
:101AA000AF909F908F907F906F905F904F903F90FE
:101AB0002F9008950E94AD0E22E330E040E050E008
:101AC0000E9478136130710581059105A9F5E091B7
:101AD0005E06F0915F0680E090E0A0E8BFE38083BF
:101AE0009183A283B38380E090E0A0E0B0E484839C
:101AF0009583A683B78380E090E0A0E4B0E480877C
:101B00009187A287B38780E090E0A0E8B0E4848763
:101B10009587A687B7878091380690913906DC01B2
:101B2000ED91FC9160913606709137060190F0813D
:101B3000E02D4CE356E0099580E593E00C94300BE2
:101B40008EE293E090933D0680933C0682E293E020
:101B500090933F0680933E061092400610924106F5
:101B6000109242061092430686E193E09093450658
:101B70008093440681EB92E090934706809346065B
:101B8000109248061092490610924A0610924B068F
:101B900010924C0610924D0610924E0610924F066F
:101BA000109251061092500610925206109253064F
:101BB000109254061092550610925606109257062F
:101BC000109258061092590610925F0610925E0607
:101BD00082EB92E090933306809332068CE396E09A
:101BE000909335068093340610923B0610923A0685
:101BF0008AE393E0909351038093500389E696E043
:101C0000909353038093520380E091EEA0E0B0E004
:101C10008093540390935503A0935603B0935703B6
:101C2000109206068AE093E09093150680931406BE
:101C300010921606109217061092180610921906A6
:101C400010921F0610921E06109220061092210676
:101C5000109222061092230610922906109228064E
:101C600010922A0610922B0610922C0610922D0626
:101C70001092310610923006E8E9F5E011921192C7
:101C800085E0EA3CF807D1F7EAECF5E01192119211
:101C900085E0EC3FF807D1F7E8E6F3E0119284E045
:101CA000E038F807D9F7E0E8F4E0119285E0E83988
:101CB000F807D9F710926403109265031092660337
:101CC0001092670308951F920F920FB60F9211247E
:101CD0002F933F938F939F93AF93BF938091610610
:101CE00090916206A0916306B091640630916006FF
:101CF00023E0230F2D3720F40196A11DB11D05C04F
:101D000026E8230F0296A11DB11D20936006809343
:101D1000610690936206A0936306B0936406809177
:101D2000650690916606A0916706B09168060196D7
:101D3000A11DB11D8093650690936606A09367066A
:101D4000B0936806BF91AF919F918F913F912F9172
:101D50000F900FBE0F901F9018952FB7F8946091B9
:101D600061067091620680916306909164062FBFB0
:101D70000895789484B5826084BD84B5816084BD03
:101D800085B5826085BD85B5816085BDEEE6F0E0F4
:101D9000808181608083E1E8F0E010828081826050
:101DA0008083808181608083E0E8F0E080818160D1
:101DB0008083E1EBF0E0808184608083E0EBF0E001
:101DC000808181608083EAE7F0E0808184608083A5
:101DD000808182608083808181608083808180684F
:101DE00080831092C10008956F927F928F929F928C
:101DF000AF92BF92CF92DF92EF92FF920F931F9319
:101E0000CF93DF93EC01009789F4CB01DF91CF9161
:101E10001F910F91FF90EF90DF90CF90BF90AF9008
:101E20009F908F907F906F900C94DD0FFC01E60FD8
:101E3000F71F9C0122503109E217F30708F4ACC0E8
:101E4000D9010D911C91119706171707B0F00530B5
:101E5000110508F49FC0C80104978617970708F476
:101E600099C002501109061B170B019311936D9332
:101E70007C93CF010E9472108DC05B01A01AB10A41
:101E80004C01800E911EA0911507B091160740E0FD
:101E900050E0E12CF12C109709F44AC0A815B905BF
:101EA000D1F56D907C901197630182E0C80ED11C32
:101EB000CA14DB0480F1A3014A195B096A0182E0BC
:101EC000C80ED11C1296BC9012971396AC91B5E037
:101ED000CB16D10440F0B282A38351834083D90151
:101EE0006D937C930AC00E5F1F4FC301800F911F3B
:101EF000F90191838083EB2DFA2FE114F10431F085
:101F0000D7011396FC93EE93129744C0F0931607F3
:101F1000E09315073FC08D919C9111974817590781
:101F200008F4AC017D0112960D90BC91A02DB3CFA9
:101F3000809113079091140788159905E1F44617CD
:101F40005707C8F48091000190910101009741F476
:101F50008DB79EB74091040150910501841B950BEC
:101F6000E817F907C8F4F0931407E0931307F90191
:101F7000718360830FC0CB010E94DD0F7C0100974D
:101F800059F0A801BE010E944B13CE010E947210AD
:101F9000C70104C0CE0102C080E090E0DF91CF9184
:101FA0001F910F91FF90EF90DF90CF90BF90AF9077
:101FB0009F908F907F906F900895CF93DF938230A2
:101FC000910510F482E090E0E0911507F09116077A
:101FD00020E030E0C0E0D0E0309711F14081518145
:101FE00048175907C0F04817590761F48281938157
:101FF000209719F09B838A832BC0909316078093B8
:10200000150726C02115310519F04217530718F49A
:102010009A01BE01DF01EF010280F381E02DDCCFE8
:102020002115310509F1281B390B2430310590F4B5
:1020300012968D919C9113976115710521F0FB010A
:102040009383828304C09093160780931507FD0144
:10205000329644C0FD01E20FF31F81939193225009
:1020600031092D933C933AC0209113073091140706
:10207000232B41F420910201309103013093140786
:1020800020931307209100013091010121153105A2
:1020900041F42DB73EB74091040150910501241B36
:1020A000350BE0911307F0911407E217F307A0F442
:1020B0002E1B3F0B2817390778F0AC014E5F5F4F9E
:1020C0002417350748F04E0F5F1F509314074093B5
:1020D00013078193919302C0E0E0F0E0CF01DF911C
:1020E000CF9108950F931F93CF93DF93009709F437
:1020F0008CC0FC0132971382128200911507109157
:1021000016070115110581F420813181820F931F7B
:1021100020911307309114072817390779F5F093A8
:102120001407E093130771C0D80140E050E0AE17E8
:10213000BF0750F412962D913C911397AD012115D4
:10214000310509F1D901F3CF9D01DA0133832283EF
:1021500060817181860F971F8217930769F4EC01E4
:1021600028813981260F371F2E5F3F4F318320830F
:102170008A819B8193838283452B29F4F0931607F0
:10218000E093150742C01396FC93EE931297ED016E
:10219000499159919E01240F351FE217F30771F4FD
:1021A00080819181840F951F029611969C938E9346
:1021B0008281938113969C938E931297E0E0F0E0D6
:1021C000D80112968D919C911397009719F0F80100
:1021D0008C01F6CF8D919C9198012E5F3F4F820F1D
:1021E000931F20911307309114072817390769F4BA
:1021F000309729F4109216071092150702C0138227
:1022000012821093140700931307DF91CF911F914F
:102210000F9108950E94B90E0E944402CBEED1E1C5
:102220000E945A0D2097E1F30E94EB11F9CFFC01B7
:1022300024853585F901E05CFF4F808191813296DC
:1022400020813181821B930B8F7399270895DC01C4
:102250001C96ED91FC911D97DF01A05CBF4F2D9165
:102260003C91119712968D919C91119728173907DF
:1022700039F08D919C91E80FF91F808190E00895CD
:102280008FEF9FEF0895FC01A485B585FD01E05C0B
:10229000FF4F208131813296808191812817390743
:1022A00079F080819181A80FB91F8C9120813181B3
:1022B0002F5F3F4F2F7333273183208390E00895A2
:1022C0008FEF9FEF0895FC0181A1882329F0A48955
:1022D000B5898C9186FFFBCF11A208950F931F93B0
:1022E000CF93DF93FC01A685B7858D01005C1F4F5E
:1022F000E8018881998101968F739927AD014E5B22
:102300005F4FEA012881398182179307D1F3E801F1
:1023100028813981A20FB31F6C93A685B785A05C75
:10232000BF4F11969C938E93A689B7892C9181E01B
:1023300090E0078C02C0880F991F0A94E2F7822B65
:102340008C9381E081A30488F589E02D80818064ED
:10235000808381E090E0DF91CF911F910F910895EC
:1023600008951F920F920FB60F9211242F934F933F
:102370005F938F939F93EF93FF938091C00082FDB3
:102380001CC02091C60080910F0790911007019604
:102390008F73992740911107509112078417950761
:1023A00071F0E0910F07F0911007E153F94F20838E
:1023B0009093100780930F0702C08091C600FF9191
:1023C000EF919F918F915F914F912F910F900FBE41
:1023D0000F901F90189589E696E00E941711892B9F
:1023E00011F00C94B01108951F920F920FB60F9236
:1023F00011242F933F938F939F93EF93FF932091FB
:10240000CB063091CC068091CD069091CE06281750
:10241000390731F48091C1008F7D8093C10014C0D1
:10242000E091CD06F091CE06E557F94F20818091DD
:10243000CD069091CE0601968F7399279093CE0684
:102440008093CD062093C600FF91EF919F918F91CD
:102450003F912F910F900FBE0F901F901895CF9224
:10246000DF92EF92FF920F931F93CF93DF93EC01D4
:102470006A017B014115514E6105710509F1EC8935
:10248000FD8981E090E008A002C0880F991F0A949E
:10249000E2F7808360E079E08DE390E0A7019601A8
:1024A0000E94781389019A0101501109210931090B
:1024B0003695279517950795980101151041A8F0B5
:1024C000EC89FD89108260E874E88EE190E0A70154
:1024D00096010E947813DA01C9010197A109B10997
:1024E000B695A795979587959C01E889F9893083DA
:1024F000EA89FB89208319A2EE89FF89408181E066
:1025000090E09C010C8C02C0220F331F0A94E2F76A
:10251000242B2083EE89FF8940819C010D8C02C011
:10252000220F331F0A94E2F7242B2083EE89FF89C0
:1025300040819C010E8C02C0220F331F0A94E2F7E7
:10254000242B2083EE89FF8920810F8C02C0880F05
:10255000991F0A94E2F7809582238083DF91CF91BF
:102560001F910F91FF90EF90DF90CF900895E9E6D3
:10257000F6E01382128288EE93E0A0E0B0E084835C
:102580009583A683B78384E493E0918380838FEC63
:1025900096E0958784878BE896E09787868785EC19
:1025A00090E0918B808B84EC90E0938B828B80EC1D
:1025B00090E0958B848B81EC90E0978B868B82ECFE
:1025C00090E0918F808F86EC90E0938F828F84E0F3
:1025D000848F83E0858F87E0868F85E0878F81E019
:1025E00080A30895CF92DF92EF92FF920F931F93F3
:1025F000CF93DF938C01EB01688179818A819B8184
:1026000020E03AEC4AE95BE30E947813F801C080CD
:10261000D180E280F380C20ED31EE41EF51EC0827C
:10262000D182E282F382688379838A839B83DF91FC
:10263000CF911F910F91FF90EF90DF90CF90089571
:10264000CF92DF92EF92FF920F931F93CF93DF937E
:102650006C01EB017B01E40EF51E00E010E0CE15ED
:10266000DF0561F06991D601ED91FC910190F08157
:10267000E02DC6010995080F191FF1CFC801DF91A0
:10268000CF911F910F91FF90EF90DF90CF90089521
:10269000F8940C94CE13FB01DC0102C001900D9262
:1026A00041505040D8F70895DB018F939F930E94CB
:1026B0009A13BF91AF91A29F800D911DA39F900D82
:1026C000B29F900D1124089597FB072E16F40094E5
:1026D00007D077FD09D00E94A51307FC05D03EF472
:1026E000909581959F4F0895709561957F4F0895BE
:1026F000A1E21A2EAA1BBB1BFD010DC0AA1FBB1F06
:10270000EE1FFF1FA217B307E407F50720F0A21B77
:10271000B30BE40BF50B661F771F881F991F1A94E4
:1027200069F760957095809590959B01AC01BD010E
:10273000CF0108950E94BF13A59F900DB49F900DE7
:10274000A49F800D911D11240895AA1BBB1B51E16C
:1027500007C0AA1FBB1FA617B70710F0A61BB70B11
:10276000881F991F5A95A9F780959095BC01CD01B6
:102770000895EE0FFF1F0590F491E02D0994A29F9C
:10278000B001B39FC001A39F700D811D1124911D45
:10279000B29F700D811D1124911D0895F894FFCFF3
:1027A0000000170780007374645F6D7367732F54A4
:1027B000696D6500636437313636633734633535A8
:1027C0003263333131666263633266653561376225
:1027D0006332383900726F7373657269616C5F6D53
:1027E0007367732F546F706963496E666F00306151
:1027F0006435316638386663343438393266386364
:102800003130363834303737363436303035007280
:102810006F7373657269616C5F6D7367732F4C6F53
:1028200067003131616264373331633235393333B4
:102830003236316364363138336264313264363271
:102840003935003966306539386264613635393872
:1028500031393836646466353361666137613430E6
:10286000653439007374645F6D7367732F4D756CD5
:102870007469417272617944696D656E73696F6ED6
:1028800000346364306338336138363833646561EB
:102890006534306563646163363065353362666123
:1028A00038007374645F6D7367732F4D756C746952
:1028B00041727261794C61796F757400306665643C
:1028C00032613131633133653131633535373162EE
:1028D000346532613939356139316133007374647B
:1028E0005F6D7367732F466C6F617433324D756C17
:1028F00074694172726179003661343065306666A0
:102900006136613137613530336163336638363172
:102910003639393162316636004D657373616765EA
:102920002066726F6D206465766963652064726FDE
:10293000707065643A206D657373616765206C61C2
:1029400072676572207468616E2062756666657272
:102950002E006F62737461636C65735F616E645F98
:10296000686F6C657300726F7373657269616C5F19
:102970006D7367732F526571756573745061726101
:102980006D000000000060008400CA00CD0000005F
:102990000000E103E604D000D30000000000B5030E
:1029A0008E04D600D90000000000E902D605DC0044
:1029B000DF0000000000AE028507E200E500000035
:1029C0000000E8001E0847014A01000000004D0118
:1029D000BE0894019701000000009F01300B9A018E
:1029E000000000006E11201317114311271163110D
:00000001FF
