:100000000C9436000C945E000C945E000C945E0020
:100010000C945E000C945E000C945E000C945E00E8
:100020000C945E000C945E000C945E000C945E00D8
:100030000C945E000C945E000C945E000C945E00C8
:100040000C94840E0C945E000C94D2110C94151236
:100050000C945E000C945E000C945E000C945E00A8
:100060000C945E000C945E00C10DD81211241FBECA
:10007000CFEFD8E0DEBFCDBF13E0A0E0B1E0ECE50C
:10008000F8E202C005900D92A635B107D9F727E036
:10009000A6E5B3E001C01D92AD31B207E1F710E073
:1000A000C6E3D0E004C02197FE010E941714C433B8
:1000B000D107C9F70E942B110C9469130C9400000E
:1000C000DC01FB0112968C911297808313968C9120
:1000D0001397818314968C911497828315968C9133
:1000E0001597838316968C911697848317968C9117
:1000F0001797858318968C911897868319968C91FB
:10010000878388E090E00895FC01DB014C9150E08A
:1001100060E070E0428353836483758311968C9111
:100120001197582B428353836483758312968C9165
:100130001297682B428353836483758313968C9143
:100140001397782B428353836483758314964C9161
:10015000149750E060E070E04683578360877187B2
:1001600015968C911597582B468357836087718716
:1001700016968C911697682B4683578360877187F4
:1001800017968C91782B468357836087718788E018
:1001900090E0089584E191E0089582E291E008956D
:1001A00083E491E008958CE591E008958DE791E076
:1001B000089580E991E008958BEC92E0089581EB39
:1001C00091E0089582ED91E008958FEE91E0089519
:1001D0008F929F92AF92BF92CF92DF92EF92FF9257
:1001E0000F931F93CF93DF93EC018B018A81FB0167
:1001F00080838B8181838C8182838D818383C12CD9
:10020000D12C812C912C540184E0E82EF12C4A81D0
:100210005B816C817D81D801AE0DBF1D8416950672
:10022000A606B706C0F48A899B898C0D9D1DFC012A
:1002300020813181F90120813181BD01F9010995C8
:10024000E80EF91EFFEF8F1A9F0AAF0ABF0A8CE073
:10025000C80ED11CDCCF8C898C938D8911968C9320
:1002600011978E8912968C9312978F8913968C937F
:10027000C7010496DF91CF911F910F91FF90EF90EE
:10028000DF90CF90BF90AF909F908F90089580E1C6
:1002900092E008958AE292E00895CF92DF92EF9281
:1002A000FF920F931F93CF93DF93EC018B01029684
:1002B0000E94E800F801E80FF91F2A8D20832B8D9A
:1002C00021832C8D22832D8D2383049620E030E022
:1002D00040E050E0BA01CA8CDB8CEC8CFD8C4C15F4
:1002E0005D056E057F05B8F4EAA1FBA1E20FF31FDF
:1002F000E080F180B281A381F801E80FF91FE0826C
:10030000F182B283A38304964F5F5F4F6F4F7F4F9D
:100310002C5F3F4FE0CFDF91CF911F910F91FF9066
:10032000EF90DF90CF9008958BE492E0089586E6F9
:1003300092E00895FC01EA54FD4F80810895AF9248
:10034000BF92CF92DF92EF92FF920F931F93CF93C2
:10035000DF9300D000D01F92CDB7DEB78C016B01C8
:10036000643671053CF0FC01EA54FD4F808188231E
:1003700009F478C0DA01ED91FC910190F081E02D53
:10038000B801695C7E4FCA0109957801B0EDEB1A9E
:10039000BEEFFB0A2FEFF70120832EEF319620836B
:1003A00031968083319690833196292F280F20959E
:1003B00020833196C082D801AA5CBE4FDC9245E012
:1003C00050E020E030E0BC016A5F7F4F64177507A2
:1003D00034F0A1912A0F311D4F5F5F4FF7CF6C01B1
:1003E000F8E0CF0ED11C800F911FFC01E95CFE4F9D
:1003F0002095208329E1C21621E0D206CCF45701D2
:10040000C5018E199F098C159D0584F4D80112969B
:100410008D919C911397F50161915F01DC01ED9144
:10042000FC910190F081E02D0995EACFC6011CC036
:1004300083E093E09A83898383E08B8387E892E06B
:100440009D838C83D801ED91FC910190F081E02D8A
:10045000AE014F5F5F4F67E070E0C80109958FEF15
:100460009FEF02C080E090E00F900F900F900F90F0
:100470000F90DF91CF911F910F91FF90EF90DF9040
:10048000CF90BF90AF900895409188035091890319
:1004900060918A0370918B0380918603909187030A
:1004A0000E945012109231061092300610923306BC
:1004B00010923206109237061092360610923506C8
:1004C0001092340688E190E00E94FE0FFC019093A8
:1004D00075038093740388E090E0A0E0B0E080931F
:1004E0007A0390937B03A0937C03B0937D0320E079
:1004F00031E03383228384839583A683B783808707
:100500009187A287B3871092760310927703109297
:1005100078031092790380E290E00E94FE0F90939E
:10052000830380938203ECECF5E080E090E021917E
:100530003191232BB1F4FC01EE0FFF1FE453FA4F6E
:1005400026E533E03183208383589F4F90935B03EC
:1005500080935A0384E893E090935D0380935C0357
:10056000089501968931910511F70895CF92DF9290
:10057000EF92FF9220E030E06A017B01022E04C07E
:10058000F694E794D794C7940A94D2F7FC01C192E9
:10059000CF01285F3F4F2032310571F7FF90EF9078
:1005A000DF90CF900895EF92FF920F931F93CF9318
:1005B000DF93EC018B01AA81BB81FD01019000203A
:1005C000E9F731977F01EA1AFB0AA70160E070E0C2
:1005D000C8010E94B6026A817B81A701C801049606
:1005E0000E946C13F801EE0DFF1D8C8184838D81B8
:1005F00085838E8186838F8187838885808789859F
:1006000081878A8582878B858387C7010C96DF91D6
:10061000CF911F910F91FF90EF9008954F925F92AD
:100620006F927F92AF92BF92CF92DF92EF92FF9242
:100630000F931F93CF93DF93EC017B018A81FB0122
:1006400080838B8181838C8182838D818383DB0195
:10065000179640E050E0BA01E4E0F0E04A805B80A9
:100660006C807D808F010C5F1F4F4415550566051A
:100670007705C0F48A859B85E80FF91F3497D080F1
:10068000218192818381FD013397D082319620832D
:10069000319690838C93F8014F5F5F4F6F4F7F4F80
:1006A0001496DCCFEE0DFF1D8C8580838D858183B4
:1006B0008E8582838F85838380E090E040E050E0E8
:1006C000BA014C845D846E847F84F701E00FF11FD2
:1006D0000C5F1F4F4415550566057705B8F4AC89C6
:1006E000BD89A80FB91FCC901196DC901197129676
:1006F0003C91129713962C91C082D182328323832E
:100700004F5F5F4F6F4F7F4F0496DBCF8E898083A3
:100710008F898183888D8283898D8383412C512C9D
:1007200032018E899F89A88DB98D481659066A06AF
:100730007B0680F55201AA0CBB1CEC8DFD8DEA0DE9
:10074000FB1DA081B181FD0101900020E9F73197E7
:100750006F01CA1ADB0AA60160E070E0C701800FD2
:10076000911F0E94B6020C5F1F4F8C8D9D8DFC0166
:10077000EA0DFB1D60817181A601C701800F911FE9
:100780000E946C130C0D1D1DFFEF4F1A5F0A6F0ABC
:100790007F0AC7CFC801DF91CF911F910F91FF90C2
:1007A000EF90DF90CF90BF90AF907F906F905F9071
:1007B0004F900895EF92FF920F931F93CF93DF9383
:1007C0008C017B01EC018A81FB018193AB81BC81AF
:1007D000ED0109900020E9F72197CA1BDB0BAE0160
:1007E00060E070E0CF010E94B602F801638174817D
:1007F000AE01C70105960E946C13CE010596DF91EC
:10080000CF911F910F91FF90EF900895CF92DF92BB
:10081000EF92FF920F931F93CF93DF936C01EB0145
:10082000FC018281888383818983A481B581FD0154
:1008300001900020E9F731978F010A1B1B0BA801DB
:1008400060E070E0CE0102960E94B602F60164817B
:100850007581A801CE0106960E946C13C801069608
:10086000F601A681B781FD0101900020E9F73197DB
:100870007F01EA1AFB0AA70160E070E08C0F9D1F60
:100880000E94B602065F1F4FF60166817781A701BD
:10089000CE01800F911F0E946C130E0D1F1DF601DB
:1008A000A085B185FD0101900020E9F731977F0116
:1008B000EA1AFB0AA70160E070E0CE01800F911FE9
:1008C0000E94B6020C5F1F4FF60160857185A7017B
:1008D000CE01800F911F0E946C13C8018E0D9F1DC9
:1008E000F6016285438534852585C80FD91F688345
:1008F00049833A832B830496DF91CF911F910F9107
:10090000FF90EF90DF90CF900895CF92DF92EF921B
:10091000FF92FC011082118212821382DB0120E01F
:1009200030E04D9150E0022E02C0440F551F0A9452
:10093000E2F7052E000C660B770BC080D180E280B9
:10094000F3804C295D296E297F294083518362837E
:100950007383285F3F4F2032310519F7FF90EF90E6
:10096000DF90CF9008958F929F92AF92BF92CF92D7
:10097000DF92EF92FF920F931F93CF93DF9300D0FC
:1009800000D0CDB7DEB77C018B01FB018191BF01A7
:10099000F7018283CE0101960E94850489819A81A4
:1009A000AB81BC814C015D01F5E08F0E911CA11C57
:1009B000B11C680125E0C20ED11CA601401B510BE1
:1009C00060E070E0481559056A057B0548F4F601BA
:1009D00041916F019F0122503109F9014083EDCF10
:1009E000F801E80FF91F14820C5F1F4FF701148301
:1009F000038305960F900F900F900F90DF91CF918A
:100A00001F910F91FF90EF90DF90CF90BF90AF902C
:100A10009F908F9008954F925F926F927F928F92E6
:100A20009F92AF92BF92CF92DF92EF92FF920F937D
:100A30001F93CF93DF93CDB7DEB72C970FB6F89403
:100A4000DEBF0FBECDBF7C018B01DB018C9190E03E
:100A5000F7019383828311962C91922B9383828347
:100A60006E5F7F4FCE0109960E94850489849A8427
:100A7000AB84BC84B501A4014A5F5F4F6F4F7F4FC9
:100A8000F8013696CF01801B910BA0E0B0E08417EF
:100A90009507A607B70728F48191DF0112978C9379
:100AA000F1CFF801E80DF91D1582C8010596D701AF
:100AB00015969C938E931497B4016A5F7F4F600FD5
:100AC000711FCE0105960E948504BAE08B0E911C21
:100AD0004D815E816F8178852401092C000C6608A8
:100AE0007708440E551E661E771EF801E80DF91DA5
:100AF000CF01801B910BA0E0B0E084159505A60501
:100B0000B70528F48191DF0112978C93F1CF64012E
:100B1000C40ED51EB8016C0D7D1DFB0131971082EE
:100B2000C4010197800F911FF70197838683CE013F
:100B300001960E948504A6014C5F5F4F49805A8050
:100B40006B807C804A01052E000CAA08BB08840C2F
:100B5000951CA61CB71CF801E40FF51F9F01201B74
:100B6000310BC901A0E0B0E088159905AA05BB05C5
:100B700028F48191DF0112978C93F0CFCA01840D84
:100B8000951DF801E80FF91FDF0111971C929A01DA
:100B900021503109020F131FD70119961C930E9390
:100BA00018972181428150E060E070E0BA0155273A
:100BB0004427522B2081422B2381722BF70142873D
:100BC00053876487758704962C960FB6F894DEBF1A
:100BD0000FBECDBFDF91CF911F910F91FF90EF908E
:100BE000DF90CF90BF90AF909F908F907F906F904D
:100BF0005F904F9008952F923F924F925F926F9225
:100C00007F928F929F92AF92BF92CF92DF92EF929C
:100C1000FF920F931F93CF93DF93CDB7DEB7289743
:100C20000FB6F894DEBF0FBECDBF8C015B01DB01B8
:100C30008C9111969C9111971296CC901297D12C71
:100C4000E12CF12C7601DD24CC24D92AC82A139674
:100C50008C91F82AF80182819381A481B5818C1549
:100C60009D05AE05BF0570F4B601660F771F660FD0
:100C7000771F828593850E94150FD8011B969C9340
:100C80008E931A97F801C282D382E482F582D5014D
:100C90001796C12CD12C7601F4E08F2E912C98015F
:100CA0002A5F3F4FF8014281538164817581C401FD
:100CB0000496C416D506E606F70680F54C9150E07A
:100CC00060E070E0742F662755274427FD013397B5
:100CD000E0814E2BFD013297E0815E2BFD013197C3
:100CE000E0816E2BF80146835783608771874C0142
:100CF000089742855385840F951FF90140815181E2
:100D000062817381FC014083518362837383FFEFAF
:100D1000CF1ADF0AEF0AFF0A1496C4CFF401EA0DD6
:100D2000FB1D20813181C280D12CE12CF12C760178
:100D3000DD24CC24D32AC22A2381F22A4C01F801D3
:100D400084859585A685B7858C159D05AE05BF055F
:100D500070F4B601660F771F660F771F8489958937
:100D60000E94150FD80155969C938E935497F801C5
:100D7000C486D586E686F78620E030E0C12CD12CEB
:100D80007601D8015096F8014485558566857785AA
:100D9000F501E80DF91DC4010496C416D506E60652
:100DA000F70648F59180428150E060E070E0BA01BA
:100DB00055274427592990804929E3817E2BF80142
:100DC000408B518B628B738B4C0184899589FC011C
:100DD000E20FF31F4D915D916D917C9113974083CC
:100DE000518362837383FFEFCF1ADF0AEF0AFF0A92
:100DF0002C5F3F4FC8CF20813181C280D12CE12CA4
:100E0000F12C7601DD24CC24D32AC22A2381F22AB4
:100E10004C01F80186899789A08DB18D8C159D05AF
:100E2000AE05BF0560F4B601660F771F848D958D02
:100E30000E94150FD8015D969C938E935C97F801E4
:100E4000C68AD78AE08EF18E412C512C32011801CE
:100E5000FAE12F0E311CF80186899789A08DB18D9A
:100E6000481659066A067B0608F05AC0B501680D97
:100E7000791DCE0101960E94850494012C5F3F4F9D
:100E8000C980DA80EB80FC80C901032E000CAA0B1C
:100E9000BB0BAC01BD014C0D5D1D6E1D7F1D4D8357
:100EA0005E836F837887F501E20FF31FAF014A1964
:100EB0005B09CA01A0E0B0E04D815E816F81788559
:100EC00084179507A607B70728F44191DF01129709
:100ED0004C93ECCFC9018C0D9D1DF501E80FF91F56
:100EE00031971082215031092A0D3B1DD8015B96A4
:100EF0003C932E935A974C01C201880F991F5C9620
:100F0000ED91FC915D97E80FF91FD1018D919C91B6
:100F100091838083BFEF4B1A5B0A6B0A7B0A9BCFDE
:100F2000C40128960FB6F894DEBF0FBECDBFDF9187
:100F3000CF911F910F91FF90EF90DF90CF90BF90D6
:100F4000AF909F908F907F906F905F904F903F9069
:100F50002F9008958F929F92AF92BF92CF92DF927F
:100F6000EF92FF920F931F93CF93DF9300D000D0A7
:100F7000CDB7DEB78C017B01CE0101960E948504BE
:100F800089819A81AB81BC814C015D0124E0820E94
:100F9000911CA11CB11C6701E4E0CE0ED11CA6017E
:100FA0004E195F0960E070E0481559056A057B0538
:100FB00048F4F60141916F019F0122503109F90176
:100FC0004083EDCF6701C80ED91EF6011382F3E00E
:100FD000EF0EF11CF801F382E282F601448150E049
:100FE00060E070E0F8014483558366837783F601FF
:100FF0002581522BF8014483558366837783F6015C
:101000002681622BF8014483558366837783F6013A
:101010002781722BF8014483558366837783F60119
:10102000408550E060E070E0F801408751876287BA
:101030007387F6012185522BF8014087518762871B
:101040007387F6012285622BF801408751876287FA
:101050007387F6012385722BF801408751876287D9
:1010600073870C960F900F900F900F90DF91CF9198
:101070001F910F91FF90EF90DF90CF90BF90AF90B6
:101080009F908F9008954F925F926F927F929F9260
:10109000AF92BF92CF92DF92EF92FF920F931F9386
:1010A000CF93DF938C01EB0188819981CA80D12C89
:1010B000E12CF12C7601DD24CC24D92AC82A8B819D
:1010C000F82AF80182819381A481B5818C159D0550
:1010D000AE05BF0568F48CE08C9DB0018D9D700D50
:1010E0001124828993890E94150FF801938B828BBA
:1010F000F801C282D382E482F582C12CD12C412C2A
:10110000512C320184E0E82EF12C5801F6E0AF0EAC
:10111000B11C9CE0992EF801428153816481758154
:10112000DE01AE0DBF1D4416550666067706D0F4E7
:10113000BD01C5010E94AA07E80EF91EF801A289A7
:10114000B389AC0DBD1DF501892D01900D928A95D5
:10115000E1F7FFEF4F1A5F0A6F0A7F0A8CE0C80EB3
:10116000D11CD9CF4C9150E060E070E0448B558B9E
:10117000668B778B11968C911197582B448B558BDE
:10118000668B778B12968C911297682B448B558BBC
:10119000668B778B13968C91782B448B558B668B53
:1011A000778BC7010496DF91CF911F910F91FF902C
:1011B000EF90DF90CF90BF90AF909F907F906F9017
:1011C0005F904F9008958F929F92AF92BF92CF926F
:1011D000DF92EF92FF920F931F93CF93DF938C01D7
:1011E000EB0102960E944308FE01E80FF91F2081DF
:1011F0003181C280D12CE12CF12C7601DD24CC246C
:10120000D32AC22A2381F22A5C0124E0A20EB11C57
:10121000F801828D938DA48DB58D8C159D05AE053D
:10122000BF0570F4B601660F771F660F771F82A1A6
:1012300093A10E94150FD80193969C938E93929739
:10124000F801C28ED38EE48EF58E20E030E0C12C02
:10125000D12C76014801FEE18F0E911CF801828DA0
:10126000938DA48DB58DC816D906EA06FB06A0F5A8
:10127000AE014A0D5B1DDA0111966C911197129621
:101280008C9190E0A0E0B0E0DC0199278827962BB4
:10129000FA016081862B4381B42BF801868F978FEA
:1012A000A0A3B1A3F4E0AF0EB11CF801A2A1B3A1B9
:1012B000A20FB31FF40140815181628173814D936C
:1012C0005D936D937C931397FFEFCF1ADF0AEF0ABC
:1012D000FF0A2C5F3F4FC2CFC501DF91CF911F9115
:1012E0000F91FF90EF90DF90CF90BF90AF909F90C5
:1012F0008F9008950F931F93CF93DF93CDB7DEB7F1
:101300002A970FB6F894DEBF0FBECDBF8C018BEECF
:1013100092E09A8389831B821C821D821E821F8217
:10132000188619861A86D801ED91FC910190F081FA
:10133000E02DAE014F5F5F4F6AE070E0C801099594
:101340000E94CE0EF80160877187828793872A9664
:101350000FB6F894DEBF0FBECDBFDF91CF911F91C6
:101360000F9108954F925F926F927F92AF92BF92CA
:10137000CF92DF92EF92FF920F931F93CF93DF9361
:10138000CDB7DEB72E970FB6F894DEBF0FBECDBF38
:101390008C0187EF92E09A8389831C821B828FEBFA
:1013A00092E09E838D8398878F839A8789871B8697
:1013B0001C861D861E86680188EBC81A8DEFD80A28
:1013C0007801A6E8EA1AADEFFA0A98E1492E552409
:1013D0005394612C712CD601ED91FC913097B9F1A9
:1013E000848195819C838B83808191819E838D8371
:1013F00082819381DC01ED91FC910480F581E02DE7
:10140000099598878F83D601ED91FC918281938114
:10141000DC01ED91FC910680F781E02D09959A871A
:1014200089874B865C866D867E86F80180819181F6
:10143000F601A081B18118966D917C911997DC011C
:10144000ED91FC91AE014F5F5F4FC8010995B2E08D
:10145000CB0ED11CCE14DF0409F0BDCF6801E4E54A
:10146000CE1AEDEFDE0A88E1482E55245394612C04
:10147000712CF701A081B1811097E1F112968D9145
:101480009C9113979C838B8314968D919C911597B7
:101490009E838D83ED91FC9111970480F581E02D61
:1014A000CD01099598878F83D7018D919C91DC019F
:1014B000ED91FC910680F781E02D09959A87898747
:1014C0004B865C866D867E86D801ED91FC91A0806E
:1014D000B180F70180819181DC01ED91FC91028066
:1014E000F381E02D0995AE014F5F5F4FBC01C8014C
:1014F000F5010995F2E0EF0EF11CEC14FD0409F082
:10150000B8CFF801EA54FD4F81E080832E960FB6E4
:10151000F894DEBF0FBECDBFDF91CF911F910F9129
:10152000FF90EF90DF90CF90BF90AF907F906F9043
:101530005F904F9008958F929F92AF92BF92CF92FB
:10154000DF92EF92FF920F931F93CF93DF93CDB76C
:10155000DEB72A970FB6F894DEBF0FBECDBF8C0161
:101560005B018BEE92E09A8389831B821C821D8231
:101570001E821F82188619861A860E94CE0EF801D6
:10158000C084D184E284F3849B01AC012C193D0911
:101590004E095F0969017A01B501CE0101960E94E9
:1015A000840088EE882E83E0982EA12CB12CC701F0
:1015B000B601A50194010E94D613CB80DC80ED809A
:1015C000FE80C20ED31EE41EF51ECB82DC82ED82AD
:1015D000FE829B01AC0160E472E48FE090E00E9427
:1015E000B213CF80D884E984FA84DC01CB018C0D5E
:1015F0009D1DAE1DBF1D8F839887A987BA870E9446
:10160000CE0ECB80DC80ED80FE8031E0C31AD108A5
:10161000E108F108A50194010E94D613C21AD30A69
:10162000E40AF50AF801C486D586E686F786CF80F7
:10163000D884E984FA84F6E3DF1AF5E6EF0AF4ECDD
:10164000FF0A9B01AC0160E472E48FE090E00E942D
:10165000B213C61AD70AE80AF90AF801C08AD18A71
:10166000E28AF38AB801605F7F4FC8010C960E943E
:1016700013130E94CE0EF801E554FD4F6083718371
:10168000828393832A960FB6F894DEBF0FBECDBF38
:10169000DF91CF911F910F91FF90EF90DF90CF904E
:1016A000BF90AF909F908F9008952F923F924F924E
:1016B0005F926F927F928F929F92AF92BF92CF92E2
:1016C000DF92EF92FF920F931F93CF93DF93CDB7EB
:1016D000DEB760970FB6F894DEBF0FBECDBF988B14
:1016E0008F870E94CE0E4B015C012F8538892554CF
:1016F0003D4F3E832D83F90180819181A281B38189
:10170000A5019401281B390B4A0B5B0BDA01C901B7
:10171000893F9A42A105B10528F0EF85F889EA547E
:10172000FD4F10820F85188904551D4FD8018D91EA
:101730009C91892B81F0EF85F889E154FD4F8081E0
:101740009181A281B38188159905AA05BB0518F47A
:10175000F801118210826F847888FCE46F1AFDEF23
:101760007F0A2F85388920553D4F3A832983CF84BE
:10177000D88838E1C30ED11C4F8558894A545D4F33
:1017800058874F832F8538892C533D4F3A872987B7
:101790004F8558894D535D4F5C874B87EF84F888A0
:1017A00052E5E51A5DEFF50A2F8538892E543D4F35
:1017B0003C832B834F85588941545D4F5E874D870D
:1017C0001401250154E1250E311C411C511CEF85EB
:1017D000F88984899589A689B789892B8A2B8B2BCF
:1017E00089F4AF85B88912968D919C911397DC018D
:1017F000ED91FC910680F781E02D09959C0197FF02
:1018000015C037C10E94CE0EDC01CB0188199909A1
:10181000AA09BB09EF85F889248935894689578942
:10182000281739074A075B07E0F64BC1D3018D91B2
:101830009C911197820F931F8D939C93F801408187
:10184000518147305105D9F4AB81BC818D919C9178
:101850001197AC014F5F5F4F4D935C93EF85F88913
:10186000E80FF91F208FF701808191810197918303
:101870008083892B09F0ABCF88E090E02FC0411521
:10188000510521F52F3F310569F481E090E0F80121
:1018900091838083AD85BE852D923D924D925C9261
:1018A000139795CF0E94CE0EDC01CB0188199909C0
:1018B000AA09BB0989389341A105B10508F487CF6E
:1018C000EF85F889EA54FD4F1082FBC04130510585
:1018D000B1F42E3F310531F482E090E0D8018D93D0
:1018E0009C9375CFF80111821082AF81B8858C91DD
:1018F00081116DCF8F8598890E947A0968CF423017
:10190000510569F4F70131832083AB81BC811D92BD
:101910001C9283E090E0F801918380832EC04330D5
:10192000510561F4322F2227F70180819181280F20
:10193000391F3183208384E090E0D0CF44305105BB
:1019400081F460E071E00E94C2138F3F910531F491
:1019500085E090E0F8019183808339CF1182108275
:1019600036CF4530510569F4E981FA81318320830E
:10197000E6E0F0E0D801ED93FC93D3012D933C9386
:1019800026CF4630510599F4322F2227E981FA817A
:1019900080819181280F391F31832083E7E0F0E0B7
:1019A000D801ED93FC93D7018D919C9162CF483083
:1019B000510509F00CCFF8011182108260E071E04E
:1019C0000E94C2138F3F910509F001CFA981BA810E
:1019D0008D919C910097C9F48F8598890E947A090E
:1019E0008F8598890E94B209EF85F889E954FD4FE7
:1019F00080829182A282B382ED81FE818082918277
:101A0000A282B3828FEF9FEF61C08A30910531F4DB
:101A1000B6018F8598890E949B0AD9CE86309105A0
:101A200051F4B60189859A850E94FB0581E0AB855A
:101A3000BC858C93CCCE8B30910521F4EF81F88559
:101A40001082C5CEFC01E752FF4FEE0FFF1F2F851E
:101A50003889E20FF31F80819181009709F4B7CE96
:101A6000DC01ED91FC910190F081E02DB60109952A
:101A7000AECEEF85F889EA54FD4F8081882321F1AD
:101A80000F85188909541D4FF80180819181A28129
:101A9000B381A5019401281B390B4A0B5B0BDA01BA
:101AA000C901853C9940A105B10570F08F859889E1
:101AB0000E947A09D8018D929D92AD92BC921397A3
:101AC00003C08EEF9FEF02C080E090E060960FB6FB
:101AD000F894DEBF0FBECDBFDF91CF911F910F9164
:101AE000FF90EF90DF90CF90BF90AF909F908F903E
:101AF0007F906F905F904F903F902F9008950F933D
:101B00001F93CF93DF930091820310918303C0E072
:101B1000D0E0BE010D2E000C880B990B0E947713AC
:101B2000D8016D937D938D939D938D01E596C83A71
:101B3000B1E0DB0771F70E94CE0E22E330E040E017
:101B400050E00E94D613613071058105910589F43A
:101B500080915C0390915D03DC01ED91FC916091BB
:101B60005A0370915B030190F081E02D40E653E051
:101B7000099584E893E0DF91CF911F910F910C9428
:101B8000550B8FE393E090938503809384038FE656
:101B900096E0909387038093860380E091EEA0E027
:101BA000B0E08093880390938903A0938A03B09355
:101BB0008B0310923A068FE093E09093490680934E
:101BC000480610924A0610924B0610924C0610924C
:101BD0004D0610925306109252061092540610921F
:101BE0005506109256061092570610925D061092F6
:101BF0005C0610925E0610925F06109260061092CC
:101C000061061092650610926406ECECF5E0119204
:101C1000119285E0EE3FF807D1F7EEEFF5E0119273
:101C2000119286E0E033F807D1F7ECE9F3E0119286
:101C300084E0E43BF807D9F7E4EBF4E0119285E0A7
:101C4000EC3CF807D9F71092980310929903109280
:101C50009A0310929B0383E393E090936103809334
:101C6000600387E293E09093630380936203109292
:101C700064031092650310926603109267038BE170
:101C800093E090936903809368038FEB92E09093C5
:101C90006B0380936A0310926C0310926D03109291
:101CA0006E0310926F0310927003109271031092E2
:101CB00072031092730310927503109274031092C2
:101CC00076031092770310927803109279031092A2
:101CD0007A0310927B0310927C0310927D03109282
:101CE00083031092820380EC92E0909357038093D9
:101CF000560380E693E09093590380935803109223
:101D00005F0310925E0308951F920F920FB60F9219
:101D100011242F933F938F939F93AF93BF93809101
:101D2000670690916806A0916906B0916A063091A5
:101D3000660623E0230F2D3720F40196A11DB11D67
:101D400005C026E8230F0296A11DB11D209366064B
:101D50008093670690936806A0936906B0936A061D
:101D600080916B0690916C06A0916D06B0916E0605
:101D70000196A11DB11D80936B0690936C06A093F4
:101D80006D06B0936E06BF91AF919F918F913F9179
:101D90002F910F900FBE0F901F9018952FB7F894AA
:101DA00060916706709168068091690690916A0655
:101DB0002FBF0895789484B5826084BD84B5816016
:101DC00084BD85B5826085BD85B5816085BDEEE643
:101DD000F0E0808181608083E1E8F0E01082808122
:101DE00082608083808181608083E0E8F0E0808190
:101DF00081608083E1EBF0E0808184608083E0EBB0
:101E0000F0E0808181608083EAE7F0E08081846097
:101E100080838081826080838081816080838081F3
:101E2000806880831092C10008956F927F928F9294
:101E30009F92AF92BF92CF92DF92EF92FF920F9359
:101E40001F93CF93DF93EC01009789F4CB01DF91CF
:101E5000CF911F910F91FF90EF90DF90CF90BF90A7
:101E6000AF909F908F907F906F900C94FE0FFC012D
:101E7000E60FF71F9C0122503109E217F30708F41F
:101E8000ACC0D9010D911C91119706171707B0F03E
:101E90000530110508F49FC0C801049786179707FD
:101EA00008F499C002501109061B170B01931193F6
:101EB0006D937C93CF010E9493108DC05B01A01A9B
:101EC000B10A4C01800E911EA0911B07B0911C0716
:101ED00040E050E0E12CF12C109709F44AC0A8151D
:101EE000B905D1F56D907C901197630182E0C80E21
:101EF000D11CCA14DB0480F1A3014A195B096A01F1
:101F000082E0C80ED11C1296BC9012971396AC9129
:101F1000B5E0CB16D10440F0B282A3835183408355
:101F2000D9016D937C930AC00E5F1F4FC301800FD0
:101F3000911FF90191838083EB2DFA2FE114F104B5
:101F400031F0D7011396FC93EE93129744C0F093AF
:101F50001C07E0931B073FC08D919C911197481778
:101F6000590708F4AC017D0112960D90BC91A02D8B
:101F7000B3CF8091190790911A0788159905E1F45C
:101F800046175707C8F480910E0190910F010097F2
:101F900041F48DB79EB74091120150911301841BFB
:101FA000950BE817F907C8F4F0931A07E09319079F
:101FB000F901718360830FC0CB010E94FE0F7C0189
:101FC000009759F0A801BE010E946C13CE010E9437
:101FD0009310C70104C0CE0102C080E090E0DF9101
:101FE000CF911F910F91FF90EF90DF90CF90BF9016
:101FF000AF909F908F907F906F900895CF93DF93D5
:102000008230910510F482E090E0E0911B07F0919E
:102010001C0720E030E0C0E0D0E0309711F14081B3
:10202000518148175907C0F04817590761F4828158
:102030009381209719F09B838A832BC090931C0770
:1020400080931B0726C02115310519F0421753074D
:1020500018F49A01BE01DF01EF010280F381E02D47
:10206000DCCF2115310509F1281B390B243031054E
:1020700090F412968D919C9113976115710521F042
:10208000FB019383828304C090931C0780931B07FA
:10209000FD01329644C0FD01E20FF31F819391933D
:1020A000225031092D933C933AC020911907309169
:1020B0001A07232B41F42091100130911101309324
:1020C0001A072093190720910E0130910F01211555
:1020D000310541F42DB73EB74091120150911301E3
:1020E000241B350BE0911907F0911A07E217F3074B
:1020F000A0F42E1B3F0B2817390778F0AC014E5F78
:102100005F4F2417350748F04E0F5F1F50931A0793
:10211000409319078193919302C0E0E0F0E0CF0172
:10212000DF91CF9108950F931F93CF93DF93009783
:1021300009F48CC0FC0132971382128200911B07B4
:1021400010911C070115110581F420813181820F46
:10215000931F2091190730911A072817390779F52D
:10216000F0931A07E093190771C0D80140E050E0DE
:10217000AE17BF0750F412962D913C911397AD0105
:102180002115310509F1D901F3CF9D01DA0133831E
:10219000228360817181860F971F8217930769F4EC
:1021A000EC0128813981260F371F2E5F3F4F318385
:1021B00020838A819B8193838283452B29F4F0932A
:1021C0001C07E0931B0742C01396FC93EE931297F3
:1021D000ED01499159919E01240F351FE217F30734
:1021E00071F480819181840F951F029611969C93C2
:1021F0008E938281938113969C938E931297E0E045
:10220000F0E0D80112968D919C911397009719F0E8
:10221000F8018C01F6CF8D919C9198012E5F3F4F74
:10222000820F931F2091190730911A072817390739
:1022300069F4309729F410921C0710921B0702C012
:102240001382128210931A0700931907DF91CF911E
:102250001F910F9108950E94DA0E0E944402CCE073
:10226000D2E10E947F0D2097E1F30E940C12F9CF7A
:10227000FC0124853585F901E05CFF4F8081918167
:10228000329620813181821B930B8F739927089599
:10229000DC011C96ED91FC911D97DF01A05CBF4F06
:1022A0002D913C91119712968D919C911197281721
:1022B000390739F08D919C91E80FF91F808190E0EA
:1022C00008958FEF9FEF0895FC01A485B585FD016A
:1022D000E05CFF4F20813181329680819181281707
:1022E000390779F080819181A80FB91F8C912081E5
:1022F00031812F5F3F4F2F7333273183208390E04D
:1023000008958FEF9FEF0895FC0181A1882329F0A4
:10231000A489B5898C9186FFFBCF11A208950F93F4
:102320001F93CF93DF93FC01A685B7858D01005CD9
:102330001F4FE8018881998101968F739927AD011C
:102340004E5B5F4FEA012881398182179307D1F3F1
:10235000E80128813981A20FB31F6C93A685B78548
:10236000A05CBF4F11969C938E93A689B7892C9140
:1023700081E090E0078C02C0880F991F0A94E2F771
:10238000822B8C9381E081A30488F589E02D8081E4
:102390008064808381E090E0DF91CF911F910F9165
:1023A000089508951F920F920FB60F9211242F9344
:1023B0004F935F938F939F93EF93FF938091C00010
:1023C00082FD1CC02091C6008091150790911607D0
:1023D00001968F739927409117075091180784171A
:1023E000950771F0E0911507F0911607EB52F94F40
:1023F0002083909316078093150702C08091C60032
:10240000FF91EF919F918F915F914F912F910F903D
:102410000FBE0F901F9018958FE696E00E9438111E
:10242000892B11F00C94D11108951F920F920FB6C1
:102430000F9211242F933F938F939F93EF93FF93CA
:102440002091D1063091D2068091D3069091D40686
:102450002817390731F48091C1008F7D8093C10026
:1024600014C0E091D306F091D406EF56F94F2081C5
:102470008091D3069091D40601968F7399279093FB
:10248000D4068093D3062093C600FF91EF919F91CD
:102490008F913F912F910F900FBE0F901F90189525
:1024A000CF92DF92EF92FF920F931F93CF93DF9320
:1024B000EC016A017B014115514E6105710509F17D
:1024C000EC89FD8981E090E008A002C0880F991F87
:1024D0000A94E2F7808360E079E08DE390E0A70161
:1024E00096010E94D61389019A0101501109210910
:1024F00031093695279517950795980101151041D3
:10250000A8F0EC89FD89108260E874E88EE190E023
:10251000A70196010E94D613DA01C9010197A1090A
:10252000B109B695A795979587959C01E889F98992
:102530003083EA89FB89208319A2EE89FF894081D3
:1025400081E090E09C010C8C02C0220F331F0A94A2
:10255000E2F7242B2083EE89FF8940819C010D8CBA
:1025600002C0220F331F0A94E2F7242B2083EE8946
:10257000FF8940819C010E8C02C0220F331F0A94F8
:10258000E2F7242B2083EE89FF8920810F8C02C083
:10259000880F991F0A94E2F7809582238083DF9148
:1025A000CF911F910F91FF90EF90DF90CF90089502
:1025B000EFE6F6E01382128288EE93E0A0E0B0E04E
:1025C00084839583A683B78389E493E09183808392
:1025D00085ED96E09587848781E996E097878687E1
:1025E00085EC90E0918B808B84EC90E0938B828BD8
:1025F00080EC90E0958B848B81EC90E0978B868BC0
:1026000082EC90E0918F808F86EC90E0938F828FA8
:1026100084E0848F83E0858F87E0868F85E0878FD5
:1026200081E080A30895CF92DF92EF92FF920F9303
:102630001F93CF93DF938C01EB01688179818A81AD
:102640009B8120E03AEC4AE95BE30E94D613F80153
:10265000C080D180E280F380C20ED31EE41EF51E3E
:10266000C082D182E282F382688379838A839B83EA
:10267000DF91CF911F910F91FF90EF90DF90CF905E
:102680000895CF92DF92EF92FF920F931F93CF9313
:10269000DF936C01EB017B01E40EF51E00E010E01E
:1026A000CE15DF0561F06991D601ED91FC910190A5
:1026B000F081E02DC6010995080F191FF1CFC8015F
:1026C000DF91CF911F910F91FF90EF90DF90CF900E
:1026D0000895F8940C942C14FB01DC0102C00190C5
:1026E0000D9241505040D8F70895E89409C097FBE7
:1026F0003EF490958095709561957F4F8F4F9F4FD9
:102700009923A9F0F92F96E9BB279395F69587951C
:1027100077956795B795F111F8CFFAF4BB0F11F4DF
:1027200060FF1BC06F5F7F4F8F4F9F4F16C0882386
:1027300011F096E911C0772321F09EE8872F762FBC
:1027400005C0662371F096E8862F70E060E02AF0FD
:102750009A95660F771F881FDAF7880F96958795E9
:1027600097F90895DB018F939F930E94F813BF910F
:10277000AF91A29F800D911DA39F900DB29F900DD0
:102780001124089597FB072E16F4009407D077FDC7
:1027900009D00E94031407FC05D03EF49095819562
:1027A0009F4F0895709561957F4F0895A1E21A2E6D
:1027B000AA1BBB1BFD010DC0AA1FBB1FEE1FFF1FE5
:1027C000A217B307E407F50720F0A21BB30BE40B35
:1027D000F50B661F771F881F991F1A9469F760957C
:1027E0007095809590959B01AC01BD01CF01089536
:1027F0000E941D14A59F900DB49F900DA49F800D65
:10280000911D11240895AA1BBB1B51E107C0AA1FEB
:10281000BB1FA617B70710F0A61BB70B881F991F81
:102820005A95A9F780959095BC01CD010895EE0FBA
:10283000FF1F0590F491E02D0994A29FB001B39F72
:10284000C001A39F700D811D1124911DB29F700DB9
:0C285000811D1124911D0895F894FFCF04
:10285C006D6573736167655F617272617900000009
:10286C001D0780007374645F6D7367732F54696DFB
:10287C00650063643731363663373463353532631C
:10288C003331316662636332666535613762633258
:10289C00383900726F7373657269616C5F6D736741
:1028AC00732F546F706963496E666F0030616435C5
:1028BC0031663838666334343839326638633130CF
:1028CC0036383430373736343630303500726F7333
:1028DC0073657269616C5F6D7367732F4C6F670002
:1028EC0031316162643733316332353933333236E7
:1028FC00316364363138336264313264363239359F
:10290C0000396630653938626461363539383139A9
:10291C0038366464663533616661376134306534EA
:10292C0039007374645F6D7367732F4D756C7469C4
:10293C00417272617944696D656E73696F6E0034B2
:10294C0063643063383361383638336465616534B9
:10295C0030656364616336306535336266613800B7
:10296C007374645F6D7367732F4D756C746941720A
:10297C007261794C61796F7574003066656432618F
:10298C00313163313365313163353537316234651B
:10299C0032613939356139316133007374645F6D7B
:1029AC007367732F466C6F617433324D756C746939
:1029BC004172726179003661343065306666613619
:1029CC0061313761353033616333663836313639CE
:1029DC00393162316636004D657373616765206607
:1029EC00726F6D206465766963652064726F7070B8
:1029FC0065643A206D657373616765206C617267FD
:102A0C006572207468616E206275666665722E0050
:102A1C002F61727261795F6D736700726F7373658A
:102A2C007269616C5F6D7367732F52657175657335
:102A3C0074506172616D000000000060008400CA77
:102A4C0000CD000000000006040B05D000D30000F0
:102A5C00000000DA03B304D600D900000000000E19
:102A6C0003FB05DC00DF0000000000D302AA07E234
:102A7C0000E50000000000E800430847014A01009F
:102A8C000000004D01E30894019701000000009F35
:102A9C0001550B9A01000000008F1141133811648D
:062AAC0011481184110025
:00000001FF
